:100000000C9434000C943E000C943E000C94400080
:100010000C943E000C943E000C943E000C943E0068
:100020000C943E000C943E000C943E000C943E0058
:100030000C943E000C943E000C943E000C943E0048
:100040000C943E000C943E000C943E000C943E0038
:100050000C943E000C943E000C943E000C943E0028
:100060000C943E000C943E0011241FBECFEFD8E04C
:10007000DEBFCDBF0E944F000C945D000C940000C9
:100080001F920F920FB60F921124189B02C0409A34
:1000900001C040980F900FBE0F901F901895389A8E
:1000A000209880916B008F6080936B008091680036
:0E00B0008160809368007894FFCFF894FFCFB2
:00000001FF
