:100000000C9434000C9451000C9451000C94BA00E0
:100010000C9451000C9451000C9451000C9451001C
:100020000C9451000C9451000C9451000C9451000C
:100030000C9451000C9451000C9451000C945100FC
:100040000C9451000C9451000C9451000C945100EC
:100050000C9451000C9451000C9451000C945100DC
:100060000C9451000C94510011241FBECFEFD8E026
:10007000DEBFCDBF11E0A0E0B1E0E6E5F8E002C0F0
:1000800005900D92A633B107D9F711E0A6E3B1E0D0
:1000900001C01D92A835B107E1F70E9488000C94B9
:1000A00029040C9400009093C5008093C400E1ECF7
:1000B000F0E080818860808380818061808386E039
:1000C0008093C2000895982F8091C00085FFFCCFD7
:1000D0009093C60008958091C00087FFFCCF809167
:1000E000C60008951F93182F8A3019F48DE00E94DE
:1000F00072008091C00085FFFCCF1093C6001F9155
:1001000008958091C00087FFFCCF8091C6000895BC
:10011000389A8FE290E09093C5008093C40080915C
:10012000C10088608093C1008091C100806180938C
:10013000C10086E08093C2008BE091E0909355016E
:100140008093540184B1807F84B980916B008F606B
:1001500080936B008091680081608093680080913B
:10016000810082608093810010928500109284004B
:100170007894FFCF1F920F920FB60F9211242F93F6
:100180003F934F935F936F937F938F939F93AF931F
:10019000BF93EF93FF93209184003091850083B14A
:1001A000817090914601992359F4882309F45CC029
:1001B000309337012093360181E08093460154C08B
:1001C000913009F051C0882309F04EC0809136016A
:1001D000909137012817390748F4821B930B8095BB
:1001E000909590933F0180933E0106C0281B390BE8
:1001F00030933F0120933E0120913E0130913F0119
:1002000084E690E0AC01249FC001259F900D349FAF
:10021000900D11248852984669E973E00E944501C7
:1002200070934B0160934A0100D080E091E0EDB7FC
:10023000FEB7928381830E94590100D087E091E04C
:10024000EDB7FEB79283818380914A0190914B0173
:10025000948383830E9459010F900F900F900F9009
:100260008AE090E00E946E01FF91EF91BF91AF9103
:100270009F918F917F916F915F914F913F912F91BE
:100280000F900FBE0F901F901895AA1BBB1B51E13A
:1002900007C0AA1FBB1FA617B70710F0A61BB70BF6
:1002A000881F991F5A95A9F780959095BC01CD019B
:1002B0000895A0E0B0E0EFE5F1E00C940204FE0147
:1002C0003596619171918091540190915501AF01E2
:1002D0000E9475012096E2E00C941E046091540186
:1002E000709155010E9468030895ABE0B0E0EBE720
:1002F000F1E00C94F2033C012B015A01FC0117823E
:100300001682838181FD03C06FEF7FEFC6C19AE043
:10031000892E1E010894211C311CF3012381F20156
:1003200023FD859123FF81912F01882309F4B2C118
:10033000853239F423FD859123FF81912F01853288
:1003400029F490E0B3010E946803E7CF982FFF24BF
:10035000EE249924FFE1FF15D0F09B3269F09C3226
:1003600028F4903259F0933291F40EC09D3249F046
:10037000903369F441E024C052E0F52A84E0F82A81
:1003800028C098E0F92A25C0E0E1FE2A22C0F7FC47
:1003900029C0892F80538A3070F4F6FE05C0989CDE
:1003A000902C1124980E15C0E89CE02C1124E80E26
:1003B000F0E2FF2A0EC09E3229F4F6FC6BC140E445
:1003C000F42A07C09C3619F450E8F52A02C0983682
:1003D00049F4F20123FD959123FF91912F01992377
:1003E00009F0B8CF892F8554833018F080528330BC
:1003F00038F444E050E0A40EB51E5FE359830FC00B
:10040000933631F0933779F0933509F056C020C018
:10041000F5018081898342E050E0A40EB51E6101A0
:1004200001E010E012C0F501C080D180F6FC03C0ED
:100430006FEF7FEF02C0692D70E042E050E0A40E44
:10044000B51EC6010E945D038C015FE7F52214C052
:10045000F501C080D180F6FC03C06FEF7FEF02C0D2
:10046000692D70E042E050E0A40EB51EC6010E9466
:1004700052038C0150E8F52AF3FE07C01AC080E24F
:1004800090E0B3010E946803EA948E2D90E0081773
:100490001907A8F30EC0F601F7FC8591F7FE8191CC
:1004A0006F0190E0B3010E946803E110EA940150EB
:1004B00010400115110579F7EAC0943611F099360C
:1004C00069F5F7FE08C0F501208131814281538131
:1004D00084E090E00AC0F501808191819C0144276D
:1004E00037FD4095542F82E090E0A80EB91E9FE69C
:1004F000F92257FF09C050954095309521953F4FFF
:100500004F4F5F4FE0E8FE2ACA01B901A1012AE07E
:1005100030E00E949403D82ED21840C0953729F4B9
:100520001F2D1F7E2AE030E01DC01F2D197F9F3632
:1005300061F0903720F4983509F0ACC00FC09037C7
:1005400039F0983709F0A6C004C028E030E00AC0AE
:10055000106114FD146020E130E004C014FD166049
:1005600020E132E017FF08C0F501608171818281CE
:10057000938144E050E008C0F50180819181BC0185
:1005800080E090E042E050E0A40EB51EA1010E9480
:100590009403D82ED2188FE7F82EF122F6FE0BC066
:1005A0005EEFF522D91438F4F4FE07C0F2FC05C062
:1005B0008FEEF82202C01D2D01C0192DF4FE0DC0D2
:1005C000FE01ED0DF11D8081803319F499EEF922C1
:1005D00008C01F5FF2FE05C003C08F2D867809F0AA
:1005E0001F5F0F2DF3FC14C0F0FE0FC01E1510F09E
:1005F0009D2C0BC09D2C9E0C911A1E2D06C080E2D6
:1006000090E0B3010E9468031F5F1E15C0F304C091
:100610001E1510F4E11A01C0EE2404FF0FC080E3A0
:1006200090E0B3010E94680302FF1DC001FD03C0FA
:1006300088E790E00EC088E590E00BC0802F8678B8
:1006400091F001FF02C08BE201C080E2F7FC8DE275
:1006500090E0B3010E94680306C080E390E0B3011C
:100660000E9468039A94D914C0F3DA94F101ED0D55
:10067000F11D808190E0B3010E946803DD20A9F79D
:1006800006C080E290E0B3010E946803EA94EE2085
:10069000C1F743CEF30166817781CB012B96E2E16E
:1006A0000C940E04FC010590615070400110D8F7C5
:1006B000809590958E0F9F1F0895FC0161507040AA
:1006C00001900110D8F7809590958E0F9F1F089587
:1006D0000F931F93CF93DF938C01EB018B8181FFED
:1006E0001BC082FF0DC02E813F818C819D81281708
:1006F000390764F4E881F9810193F983E88306C03E
:10070000E885F985802F0995892B31F48E819F81A9
:1007100001969F838E8302C00FEF1FEFC801DF9108
:10072000CF911F910F910895FA01AA27283051F116
:10073000203181F1E8946F936E7F6E5F7F4F8F4F12
:100740009F4FAF4FB1E03ED0B4E03CD0670F781F71
:10075000891F9A1FA11D680F791F8A1F911DA11D56
:100760006A0F711D811D911DA11D20D009F468948F
:100770003F912AE0269F11243019305D3193DEF637
:10078000CF010895462F4770405D4193B3E00FD0ED
:10079000C9F7F6CF462F4F70405D4A3318F0495DD8
:1007A00031FD4052419302D0A9F7EACFB4E0A695BB
:1007B0009795879577956795BA95C9F700976105DD
:1007C000710508959B01AC010A2E06945795479533
:1007D00037952795BA95C9F7620F731F841F951F28
:1007E000A01D08952F923F924F925F926F927F9239
:1007F0008F929F92AF92BF92CF92DF92EF92FF9231
:100800000F931F93CF93DF93CDB7DEB7CA1BDB0BDC
:100810000FB6F894DEBF0FBECDBF09942A88398881
:1008200048885F846E847D848C849B84AA84B98488
:10083000C884DF80EE80FD800C811B81AA81B98194
:10084000CE0FD11D0FB6F894DEBF0FBECDBFED01A8
:060850000895F894FFCFAB
:1008560076616C733A2000257520000000000200C6
:10086600000000720000000000000000010000000F
:10087600000000810000000000000300000000727C
:06088600008100000000EB
:00000001FF
